{
  "contractName": "SignX",
  "abi": [
    {
      "constant": true,
      "inputs": [
        {
          "name": "",
          "type": "address"
        }
      ],
      "name": "carCorporations",
      "outputs": [
        {
          "name": "addr",
          "type": "address"
        },
        {
          "name": "description",
          "type": "string"
        },
        {
          "name": "exists",
          "type": "bool"
        }
      ],
      "payable": false,
      "stateMutability": "view",
      "type": "function"
    },
    {
      "constant": true,
      "inputs": [
        {
          "name": "",
          "type": "bytes32"
        }
      ],
      "name": "users",
      "outputs": [
        {
          "name": "userId",
          "type": "bytes32"
        },
        {
          "name": "mileage",
          "type": "uint256"
        },
        {
          "name": "numberOfUse",
          "type": "uint256"
        },
        {
          "name": "numberOfAccident",
          "type": "uint256"
        },
        {
          "name": "exists",
          "type": "bool"
        }
      ],
      "payable": false,
      "stateMutability": "view",
      "type": "function"
    },
    {
      "inputs": [],
      "payable": false,
      "stateMutability": "nonpayable",
      "type": "constructor"
    },
    {
      "anonymous": false,
      "inputs": [
        {
          "indexed": true,
          "name": "userId",
          "type": "bytes32"
        },
        {
          "indexed": false,
          "name": "carCorporation",
          "type": "string"
        },
        {
          "indexed": false,
          "name": "accidentInfo",
          "type": "string"
        },
        {
          "indexed": false,
          "name": "timestamp",
          "type": "uint256"
        }
      ],
      "name": "Accident",
      "type": "event"
    },
    {
      "constant": false,
      "inputs": [
        {
          "name": "_userId",
          "type": "string"
        }
      ],
      "name": "registerUser",
      "outputs": [],
      "payable": false,
      "stateMutability": "nonpayable",
      "type": "function"
    },
    {
      "constant": false,
      "inputs": [
        {
          "name": "_addr",
          "type": "address"
        },
        {
          "name": "_description",
          "type": "string"
        }
      ],
      "name": "registerCorporation",
      "outputs": [],
      "payable": false,
      "stateMutability": "nonpayable",
      "type": "function"
    },
    {
      "constant": false,
      "inputs": [
        {
          "name": "_userId",
          "type": "string"
        }
      ],
      "name": "unRegisterUser",
      "outputs": [],
      "payable": false,
      "stateMutability": "nonpayable",
      "type": "function"
    },
    {
      "constant": false,
      "inputs": [
        {
          "name": "_addr",
          "type": "address"
        }
      ],
      "name": "unRegisterCorporation",
      "outputs": [],
      "payable": false,
      "stateMutability": "nonpayable",
      "type": "function"
    },
    {
      "constant": false,
      "inputs": [
        {
          "name": "_userId",
          "type": "string"
        },
        {
          "name": "_mileage",
          "type": "uint256"
        }
      ],
      "name": "update",
      "outputs": [],
      "payable": false,
      "stateMutability": "nonpayable",
      "type": "function"
    },
    {
      "constant": false,
      "inputs": [
        {
          "name": "_userId",
          "type": "string"
        },
        {
          "name": "_AccidentInfo",
          "type": "string"
        },
        {
          "name": "_timestamp",
          "type": "uint256"
        }
      ],
      "name": "updateAccident",
      "outputs": [],
      "payable": false,
      "stateMutability": "nonpayable",
      "type": "function"
    },
    {
      "constant": true,
      "inputs": [
        {
          "name": "_userId",
          "type": "string"
        }
      ],
      "name": "getUser",
      "outputs": [
        {
          "name": "",
          "type": "bytes32"
        },
        {
          "name": "",
          "type": "uint256"
        },
        {
          "name": "",
          "type": "uint256"
        },
        {
          "name": "",
          "type": "uint256"
        }
      ],
      "payable": false,
      "stateMutability": "view",
      "type": "function"
    },
    {
      "constant": true,
      "inputs": [
        {
          "name": "_addr",
          "type": "address"
        }
      ],
      "name": "getCarCorporation",
      "outputs": [
        {
          "name": "",
          "type": "address"
        },
        {
          "name": "",
          "type": "string"
        }
      ],
      "payable": false,
      "stateMutability": "view",
      "type": "function"
    },
    {
      "constant": false,
      "inputs": [
        {
          "name": "_stopped",
          "type": "bool"
        }
      ],
      "name": "setStopped",
      "outputs": [],
      "payable": false,
      "stateMutability": "nonpayable",
      "type": "function"
    }
  ],
  "bytecode": "0x608060405234801561001057600080fd5b50336000806101000a81548173ffffffffffffffffffffffffffffffffffffffff021916908373ffffffffffffffffffffffffffffffffffffffff1602179055506117f5806100606000396000f3006080604052600436106100af576000357c0100000000000000000000000000000000000000000000000000000000900463ffffffff1680630ce67a3d146100b457806315c33321146101a357806331feb671146101de5780633d05e5841461024a5780634ee5c2ee14610344578063704f1b941461038957806375d08be8146103c4578063c2e984831461041f578063cea6ab981461047c578063d50e829e146104e9578063dbfc2a9e14610518575b600080fd5b3480156100c057600080fd5b506100f5600480360381019080803573ffffffffffffffffffffffffffffffffffffffff16906020019092919050505061055b565b604051808373ffffffffffffffffffffffffffffffffffffffff1673ffffffffffffffffffffffffffffffffffffffff16815260200180602001828103825283818151815260200191508051906020019080838360005b8381101561016757808201518184015260208101905061014c565b50505050905090810190601f1680156101945780820380516001836020036101000a031916815260200191505b50935050505060405180910390f35b3480156101af57600080fd5b506101dc600480360381019080803590602001908201803590602001919091929391929390505050610710565b005b3480156101ea57600080fd5b50610217600480360381019080803590602001908201803590602001919091929391929390505050610823565b60405180856000191660001916815260200184815260200183815260200182815260200194505050505060405180910390f35b34801561025657600080fd5b5061028b600480360381019080803573ffffffffffffffffffffffffffffffffffffffff16906020019092919050505061093d565b604051808473ffffffffffffffffffffffffffffffffffffffff1673ffffffffffffffffffffffffffffffffffffffff1681526020018060200183151515158152602001828103825284818151815260200191508051906020019080838360005b838110156103075780820151818401526020810190506102ec565b50505050905090810190601f1680156103345780820380516001836020036101000a031916815260200191505b5094505050505060405180910390f35b34801561035057600080fd5b5061038760048036038101908080359060200190820180359060200191909192939192939080359060200190929190505050610a2c565b005b34801561039557600080fd5b506103c2600480360381019080803590602001908201803590602001919091929391929390505050610c6e565b005b3480156103d057600080fd5b5061041d600480360381019080803573ffffffffffffffffffffffffffffffffffffffff169060200190929190803590602001908201803590602001919091929391929390505050610eb4565b005b34801561042b57600080fd5b5061047a6004803603810190808035906020019082018035906020019190919293919293908035906020019082018035906020019190919293919293908035906020019092919050505061100c565b005b34801561048857600080fd5b506104ab600480360381019080803560001916906020019092919050505061147a565b604051808660001916600019168152602001858152602001848152602001838152602001821515151581526020019550505050505060405180910390f35b3480156104f557600080fd5b506105166004803603810190808035151590602001909291905050506114bd565b005b34801561052457600080fd5b50610559600480360381019080803573ffffffffffffffffffffffffffffffffffffffff169060200190929190505050611535565b005b6000606061056761166d565b60001515600060149054906101000a900460ff16151514151561058957600080fd5b600260008573ffffffffffffffffffffffffffffffffffffffff1673ffffffffffffffffffffffffffffffffffffffff168152602001908152602001600020606060405190810160405290816000820160009054906101000a900473ffffffffffffffffffffffffffffffffffffffff1673ffffffffffffffffffffffffffffffffffffffff1673ffffffffffffffffffffffffffffffffffffffff168152602001600182018054600181600116156101000203166002900480601f0160208091040260200160405190810160405280929190818152602001828054600181600116156101000203166002900480156106c35780601f10610698576101008083540402835291602001916106c3565b820191906000526020600020905b8154815290600101906020018083116106a657829003601f168201915b505050505081526020016002820160009054906101000a900460ff1615151515815250509050806040015115156106f957600080fd5b806000015181602001518090509250925050915091565b60008060009054906101000a900473ffffffffffffffffffffffffffffffffffffffff1673ffffffffffffffffffffffffffffffffffffffff163373ffffffffffffffffffffffffffffffffffffffff1614151561076d57600080fd5b60001515600060149054906101000a900460ff16151514151561078f57600080fd5b6107ca83838080601f016020809104026020016040519081016040528093929190818152602001838380828437820191505050505050611642565b90506001600082600019166000191681526020019081526020016000206000808201600090556001820160009055600282016000905560038201600090556004820160006101000a81549060ff02191690555050505050565b60008060008060006108336116a7565b60001515600060149054906101000a900460ff16151514151561085557600080fd5b61089088888080601f016020809104026020016040519081016040528093929190818152602001838380828437820191505050505050611642565b915060016000836000191660001916815260200190815260200160002060a060405190810160405290816000820154600019166000191681526020016001820154815260200160028201548152602001600382015481526020016004820160009054906101000a900460ff16151515158152505090508060800151151561091657600080fd5b80600001518160200151826040015183606001519550955095509550505092959194509250565b60026020528060005260406000206000915090508060000160009054906101000a900473ffffffffffffffffffffffffffffffffffffffff1690806001018054600181600116156101000203166002900480601f016020809104026020016040519081016040528092919081815260200182805460018160011615610100020316600290048015610a0f5780601f106109e457610100808354040283529160200191610a0f565b820191906000526020600020905b8154815290600101906020018083116109f257829003601f168201915b5050505050908060020160009054906101000a900460ff16905083565b600080610a3761166d565b600260003373ffffffffffffffffffffffffffffffffffffffff1673ffffffffffffffffffffffffffffffffffffffff168152602001908152602001600020606060405190810160405290816000820160009054906101000a900473ffffffffffffffffffffffffffffffffffffffff1673ffffffffffffffffffffffffffffffffffffffff1673ffffffffffffffffffffffffffffffffffffffff168152602001600182018054600181600116156101000203166002900480601f016020809104026020016040519081016040528092919081815260200182805460018160011615610100020316600290048015610b715780601f10610b4657610100808354040283529160200191610b71565b820191906000526020600020905b815481529060010190602001808311610b5457829003601f168201915b505050505081526020016002820160009054906101000a900460ff161515151581525050905080604001511515610ba757600080fd5b60001515600060149054906101000a900460ff161515141515610bc957600080fd5b610c0486868080601f016020809104026020016040519081016040528093929190818152602001838380828437820191505050505050611642565b925060016000846000191660001916815260200190815260200160002091508160040160009054906101000a900460ff161515610c4057600080fd5b8382600101600082825401925050819055508160020160008154809291906001019190505550505050505050565b600080610c7961166d565b600260003373ffffffffffffffffffffffffffffffffffffffff1673ffffffffffffffffffffffffffffffffffffffff168152602001908152602001600020606060405190810160405290816000820160009054906101000a900473ffffffffffffffffffffffffffffffffffffffff1673ffffffffffffffffffffffffffffffffffffffff1673ffffffffffffffffffffffffffffffffffffffff168152602001600182018054600181600116156101000203166002900480601f016020809104026020016040519081016040528092919081815260200182805460018160011615610100020316600290048015610db35780601f10610d8857610100808354040283529160200191610db3565b820191906000526020600020905b815481529060010190602001808311610d9657829003601f168201915b505050505081526020016002820160009054906101000a900460ff161515151581525050905080604001511515610de957600080fd5b60001515600060149054906101000a900460ff161515141515610e0b57600080fd5b610e4685858080601f016020809104026020016040519081016040528093929190818152602001838380828437820191505050505050611642565b925060016000846000191660001916815260200190815260200160002091508160040160009054906101000a900460ff16151515610e8357600080fd5b8282600001816000191690555060018260040160006101000a81548160ff0219169083151502179055505050505050565b60008060009054906101000a900473ffffffffffffffffffffffffffffffffffffffff1673ffffffffffffffffffffffffffffffffffffffff163373ffffffffffffffffffffffffffffffffffffffff16141515610f1157600080fd5b60001515600060149054906101000a900460ff161515141515610f3357600080fd5b600260008573ffffffffffffffffffffffffffffffffffffffff1673ffffffffffffffffffffffffffffffffffffffff16815260200190815260200160002090508060020160009054906101000a900460ff16151515610f9257600080fd5b838160000160006101000a81548173ffffffffffffffffffffffffffffffffffffffff021916908373ffffffffffffffffffffffffffffffffffffffff1602179055508282826001019190610fe89291906116dc565b5060018160020160006101000a81548160ff02191690831515021790555050505050565b60008061101761166d565b61101f61166d565b600260003373ffffffffffffffffffffffffffffffffffffffff1673ffffffffffffffffffffffffffffffffffffffff168152602001908152602001600020606060405190810160405290816000820160009054906101000a900473ffffffffffffffffffffffffffffffffffffffff1673ffffffffffffffffffffffffffffffffffffffff1673ffffffffffffffffffffffffffffffffffffffff168152602001600182018054600181600116156101000203166002900480601f0160208091040260200160405190810160405280929190818152602001828054600181600116156101000203166002900480156111595780601f1061112e57610100808354040283529160200191611159565b820191906000526020600020905b81548152906001019060200180831161113c57829003601f168201915b505050505081526020016002820160009054906101000a900460ff16151515158152505090508060400151151561118f57600080fd5b60001515600060149054906101000a900460ff1615151415156111b157600080fd5b6111ec89898080601f016020809104026020016040519081016040528093929190818152602001838380828437820191505050505050611642565b93506001600085600019166000191681526020019081526020016000209250600260003373ffffffffffffffffffffffffffffffffffffffff1673ffffffffffffffffffffffffffffffffffffffff168152602001908152602001600020606060405190810160405290816000820160009054906101000a900473ffffffffffffffffffffffffffffffffffffffff1673ffffffffffffffffffffffffffffffffffffffff1673ffffffffffffffffffffffffffffffffffffffff168152602001600182018054600181600116156101000203166002900480601f0160208091040260200160405190810160405280929190818152602001828054600181600116156101000203166002900480156113455780601f1061131a57610100808354040283529160200191611345565b820191906000526020600020905b81548152906001019060200180831161132857829003601f168201915b505050505081526020016002820160009054906101000a900460ff16151515158152505091508260040160009054906101000a900460ff16151561138857600080fd5b82600301600081548092919060010191905055508260000154600019167f6c4666f25bc7e517532b75d38652ff9de8cb44df4defeeba0fda2d8da7cf72828360200151898989604051808060200180602001848152602001838103835287818151815260200191508051906020019080838360005b838110156114185780820151818401526020810190506113fd565b50505050905090810190601f1680156114455780820380516001836020036101000a031916815260200191505b5083810382528686828181526020019250808284378201915050965050505050505060405180910390a2505050505050505050565b60016020528060005260406000206000915090508060000154908060010154908060020154908060030154908060040160009054906101000a900460ff16905085565b6000809054906101000a900473ffffffffffffffffffffffffffffffffffffffff1673ffffffffffffffffffffffffffffffffffffffff163373ffffffffffffffffffffffffffffffffffffffff1614151561151857600080fd5b80600060146101000a81548160ff02191690831515021790555050565b6000809054906101000a900473ffffffffffffffffffffffffffffffffffffffff1673ffffffffffffffffffffffffffffffffffffffff163373ffffffffffffffffffffffffffffffffffffffff1614151561159057600080fd5b60001515600060149054906101000a900460ff1615151415156115b257600080fd5b600260008273ffffffffffffffffffffffffffffffffffffffff1673ffffffffffffffffffffffffffffffffffffffff168152602001908152602001600020600080820160006101000a81549073ffffffffffffffffffffffffffffffffffffffff0219169055600182016000611629919061175c565b6002820160006101000a81549060ff0219169055505050565b6000606082905060008151141561165f5760006001029150611667565b602083015191505b50919050565b606060405190810160405280600073ffffffffffffffffffffffffffffffffffffffff168152602001606081526020016000151581525090565b60a060405190810160405280600080191681526020016000815260200160008152602001600081526020016000151581525090565b828054600181600116156101000203166002900490600052602060002090601f016020900481019282601f1061171d57803560ff191683800117855561174b565b8280016001018555821561174b579182015b8281111561174a57823582559160200191906001019061172f565b5b50905061175891906117a4565b5090565b50805460018160011615610100020316600290046000825580601f1061178257506117a1565b601f0160209004906000526020600020908101906117a091906117a4565b5b50565b6117c691905b808211156117c25760008160009055506001016117aa565b5090565b905600a165627a7a723058201743aaf75df71162588c0c654ff445616dc0ffe137aafe34efdc9a07156101ff0029",
  "source": "pragma solidity ^0.4.0;\n\n\n\ncontract SignX {\n\n    address private owner;\n    bool private stopped;\n\n    struct User{\n        bytes32 userId;\n        uint mileage;\n        uint numberOfUse;\n        uint numberOfAccident;\n        bool exists;\n    }\n\n    struct CarCorporation{\n        address addr;\n        string description;\n        bool exists;\n    }\n\n    mapping(bytes32 => User) public users;\n    mapping(address => CarCorporation) public carCorporations;\n\n    event Accident(bytes32 indexed userId, string carCorporation, string accidentInfo, uint timestamp);\n\n\n    modifier onlyOwner(){\n        require(msg.sender == owner);\n        _;\n    }\n\n    modifier onlyCorporation(){\n        CarCorporation memory carCorporation = carCorporations[msg.sender];\n        require(carCorporation.exists);\n        _;\n    }\n\n    modifier isStopped(){\n        require(stopped == false);\n        _;\n    }\n\n    constructor() public{\n        owner = msg.sender;\n    }\n\n    function stringToBytes32(string memory source) private pure returns (bytes32 result) {\n        bytes memory tempEmptyStringTest = bytes(source);\n        if (tempEmptyStringTest.length == 0) {\n            return 0x0;\n        }\n\n        assembly {\n            result := mload(add(source, 32))\n        }\n    }\n\n\n\n    function registerUser(string _userId) external onlyCorporation isStopped{   // 카쉐어링회사가 트랜잭션을 발생? 개인이 발생? signX가 발생?\n        bytes32 userId = stringToBytes32(_userId);\n        User storage user = users[userId];\n\n        require(!user.exists);\n\n        user.userId = userId;\n        user.exists = true;\n    }\n\n\n\n    function registerCorporation(address _addr, string _description) external onlyOwner isStopped{\n        CarCorporation storage carCorporation = carCorporations[_addr];\n\n        require(!carCorporation.exists);\n\n        carCorporation.addr = _addr;\n        carCorporation.description = _description;\n        carCorporation.exists = true;\n    }\n\n    function unRegisterUser(string _userId) external onlyOwner isStopped{\n        bytes32 userId = stringToBytes32(_userId);\n        delete users[userId];\n    }\n\n    function unRegisterCorporation(address _addr) external onlyOwner isStopped{\n        delete carCorporations[_addr];\n    }\n\n    function update(string _userId, uint _mileage) external onlyCorporation isStopped{\n        bytes32 userId = stringToBytes32(_userId);\n        User storage user = users[userId];\n\n        require(user.exists);\n\n        user.mileage += _mileage;\n        user.numberOfUse ++;\n    }\n\n    function updateAccident(string _userId, string _AccidentInfo, uint _timestamp) external onlyCorporation isStopped{   // time을 timestamp로 할지? string으로 직접 입력할지?\n        bytes32 userId = stringToBytes32(_userId);\n        User storage user = users[userId];\n        CarCorporation memory carCorporation = carCorporations[msg.sender];\n\n        require(user.exists);\n\n        user.numberOfAccident ++;\n\n        emit Accident(user.userId, carCorporation.description, _AccidentInfo, _timestamp);\n    }\n\n    function getUser(string _userId) external isStopped view returns(bytes32, uint, uint, uint){\n        bytes32 userId = stringToBytes32(_userId);\n        User memory user = users[userId];\n\n        require(user.exists);\n\n        return (user.userId, user.mileage, user.numberOfUse, user.numberOfAccident);\n    }\n\n    function getCarCorporation(address _addr) external isStopped view returns (address, string){\n        CarCorporation memory carCorporation = carCorporations[_addr];\n\n        require(carCorporation.exists);\n\n        return (carCorporation.addr, carCorporation.description);\n    }\n\n    function setStopped(bool _stopped) external onlyOwner{\n        stopped = _stopped;\n    }\n}",
  "sourcePath": "/home/dowonlee/programming/signx/contracts/SignX.sol",
  "compiler": {
    "name": "solc",
    "version": "0.4.24+commit.e67f0147.Emscripten.clang"
  },
  "schemaVersion": "2.0.1",
  "updatedAt": "2018-09-14T19:56:23.681Z"
}